:100000000C9491000C94B9000C94B9000C94B900B4
:100010000C94B9000C94B9000C94B9000C94B9007C
:100020000C94B9000C94B9000C94B9000C94B9006C
:100030000C94B9000C94B9000C94B9000C94B9005C
:100040000C945F0F0C94B9000C94CF0F0C94A90F73
:100050000C94B9000C94B9000C94B9000C94B9003C
:100060000C9401100C94B9004E414E494E4954591C
:10007000494E46CDCCCC3D0AD7233C17B7D1387773
:10008000CC2B329595E6241FB14F0A000020410089
:1000900000C84200401C4620BCBE4CCA1B0E5AAED3
:1000A000C59D74005EBCE2613FDD83C29C7E20A3DF
:1000B000FD1F41009D23BE46DB65F88C11AF32CA9F
:1000C00057E97400000000240027002A0000000007
:1000D0000800020100000304070000000000000007
:1000E0000000000000250028002B00000000002375
:1000F000002600290004040404040404040202028B
:100100000202020303030303030102040810204058
:1001100080010204081020010204081020007D1153
:10012000DC1811241FBECFEFD8E0DEBFCDBF25E025
:10013000A2EDB3E001C01D92A33BB207E1F713E0CB
:10014000A0E0B1E0EEE7FFE302C005900D92A23D12
:10015000B107D9F710E0C0E9D0E004C02197FE0153
:100160000E94861DCF38D107C9F70E9421120C9436
:10017000B21F0C940000CF93DF93EC0168856937C0
:1001800001F129853A856150B9F070E08FEF98E769
:100190000E943C1DF9014C815D81CF01821B930BB4
:1001A0008417950760F44081469FC001479F900DDA
:1001B000112490833196EFCF70E060E0EBCF89E7B8
:1001C0008887DF91CF910895833081F028F48130C2
:1001D00099F08230A9F008958730A9F08830C9F0ED
:1001E0008430B1F4809180008F7D03C080918000C5
:1001F0008F7780938000089584B58F7784BD0895AC
:1002000084B58F7DFBCF8091B0008F778093B00055
:1002100008958091B0008F7DF9CF1F93CF93DF9326
:10022000282F30E0F901E353FF4F8491F901E75F94
:10023000FE4FD491F901EB50FF4FC491CC23A9F0AC
:10024000162F81110E94E400EC2FF0E0EE0FFF1F4B
:10025000EF51FF4FA591B4918FB7F894EC91111124
:1002600008C0D095DE23DC938FBFDF91CF911F9123
:100270000895DE2BF8CFCF93DF9390E0FC01E75F8A
:10028000FE4F24918B509F4FFC0184918823C9F02D
:1002900090E0880F991FFC01ED53FF4FA591B49199
:1002A000FC01EF51FF4FC591D49161110DC09FB773
:1002B000F8948C91209582238C938881282328831D
:1002C0009FBFDF91CF910895623051F49FB7F894AA
:1002D0003C91822F809583238C93E8812E2BEFCF46
:1002E0008FB7F894EC912E2B2C938FBFEACF3FB7AA
:1002F000F8948091A3049091A404A091A504B091D6
:10030000A60426B5A89B05C02F3F19F00196A11D94
:10031000B11D3FBFBA2FA92F982F8827BC01CD014F
:10032000620F711D811D911D42E0660F771F881FAE
:10033000991F4A95D1F708958F929F92AF92BF92DD
:10034000CF92DF92EF92FF926B017C010E947701C6
:100350004B015C01C114D104E104F104B9F00E9425
:100360007701681979098A099B09683E73408105FC
:10037000910580F321E0C21AD108E108F10888EE66
:10038000880E83E0981EA11CB11CE4CFFF90EF9073
:10039000DF90CF90BF90AF909F908F9008952FB730
:1003A000F89460919F047091A0048091A1049091B1
:1003B000A2042FBF089508950895AF92BF92CF92DF
:1003C000DF92EF92FF920F931F93CF93DF936C0115
:1003D0007B018B01040F151FEB015E01AE18BF08F6
:1003E000C017D10759F06991D601ED91FC910190A8
:1003F000F081E02DC6010995892B79F7C501DF91C0
:10040000CF911F910F91FF90EF90DF90CF90BF9011
:10041000AF900895FC01538D448D252F30E0842F3B
:1004200090E0821B930B541710F0CF96089501971C
:100430000895FC01918D828D981761F0A28DAE0F09
:10044000BF2FB11D5D968C91928D9F5F9F73928F90
:1004500090E008958FEF9FEF08950F931F930E94F0
:10046000CF016093AF047093B0048093B104909374
:10047000B20487EA94E00E94190297FF1DC00E940F
:10048000CF010091AF041091B0042091B1043091DC
:10049000B204601B710B820B930B0091AB041091A3
:1004A000AC042091AD043091AE046017710782074F
:1004B0009307F8F28FEF9FEF1F910F910895FC01C2
:1004C000918D828D981731F0828DE80FF11D858D09
:1004D00090E008958FEF9FEF0895FC01918D228D9C
:1004E000892F90E0805C9F4F821B91098F73992721
:1004F000089587EA94E00E946D0221E0892B09F4B7
:1005000020E0822F089580E090E0892B29F00E945E
:10051000790281110C9400000895FC01A48DA80FAC
:10052000B92FB11DA35ABF4F2C91848D90E0019635
:100530008F739927848FA689B7892C93A089B18955
:100540008C91837080648C93938D848D981306C0F6
:100550000288F389E02D80818F7D80830895EF925A
:10056000FF920F931F93CF93DF93EC0181E0888F6D
:100570009B8D8C8D98131AC0E889F989808185FF3D
:1005800015C09FB7F894EE89FF896083E889F989DF
:1005900080818370806480839FBF81E090E0DF91E1
:1005A000CF911F910F91FF90EF900895F62E0B8D34
:1005B00010E00F5F1F4F0F731127E02E8C8D8E11EF
:1005C0000CC00FB607FCFACFE889F989808185FF56
:1005D000F5CFCE010E948D02F1CFEB8DEC0FFD2FF8
:1005E000F11DE35AFF4FF0829FB7F8940B8FEA8911
:1005F000FB8980818062CFCFCF93DF93EC01888D20
:100600008823B9F0AA89BB89E889F9898C9185FD8D
:1006100003C0808186FD0DC00FB607FCF7CF8C911B
:1006200085FFF2CF808185FFEDCFCE010E948D0244
:10063000E9CFDF91CF91089520913A04260F332717
:10064000331F21323105ECF420915E04FC0190E06F
:1006500080E0243069F082E00895A0913A0421916D
:10066000AC01465E5B4FA40FB52FB11D2C930196D4
:10067000861798F380913A04680F60933A0480E0FB
:10068000089581E0089510925E0481E080936004F3
:1006900010925F0461E082E10E940D0161E083E15C
:1006A0000E940D01E9EBF0E080818E7F80838081E4
:1006B0008D7F808388E48093B80085E48093BC00BC
:1006C0000895CF93DF9391E0909319048823B9F0B4
:1006D000C091B800D091BA008091BC008A7B809311
:1006E000BC0060E082E10E940D0160E083E10E94B5
:1006F0000D010E944303D093BA00C093B800DF916C
:10070000CF9108950895E0918B0480918A04E817B1
:1007100030F4F0E0EC50FC4F808190E008958FEFD2
:100720009FEF089590918B0480918A042FEF3FEF03
:10073000981748F4E92FF0E0EC50FC4F208130E0AE
:100740009F5F90938B04C901089580918A049091D2
:100750008B04891B990B0895CF92DF92EF92FF9241
:100760000F931F93CF93DF937C01CB018A012091DC
:10077000F303222389F0EB016B01C40ED51ECC15C7
:10078000DD0569F06991D701ED91FC910190F0814F
:10079000E02DC7010995F3CF642F0E941C03C80107
:1007A000DF91CF911F910F91FF90EF90DF90CF904D
:1007B0000895CF93DF931F92CDB7DEB76983209161
:1007C000F3032223F9F020918804203258F021E02D
:1007D00030E0FC013383228390E080E00F90DF91D2
:1007E000CF91089580918904E82FF0E0ED52FC4FFD
:1007F000998190838F5F809389048093880481E03E
:1008000090E0ECCF61E0CE0101960E941C03F7CF8F
:10081000CF92DF92EF92FF920F931F93CF93DF93CC
:10082000D62F672FFC01C48181E08093F303C0932E
:10083000D203109289041092880484E495E00E9407
:10084000D9036D2F84E495E00E94D903D0918804E8
:10085000D13208F092C00E9477016B017C01809137
:100860005E04811165C082E080935E0481E0809324
:1008700060048FEF80935D0410928204D093810412
:10088000A3EDB3E0E1E6F4E080E0D81385C0109278
:10089000830480918304CC0FC82BC0938304809180
:1008A0005F04813009F07CC010925F040E947701E0
:1008B0006B017C01809183048093BB0080911504BF
:1008C00090911604A0911704B0911804892B8A2BDB
:1008D0008B2B99F00E94770100911504109116045A
:1008E00020911704309118046C197D098E099F0915
:1008F0000617170728073907E0F18091BC0083FD30
:10090000D9CF85EC8093BC000E9477016B017C01FC
:1009100080915E04823009F445C080915D048F3F70
:1009200061F180915D04803241F180915D0425C0C8
:100930008091150490911604A0911704B0911804A9
:10094000892B8A2B8B2B09F48ACF0E947701009187
:1009500015041091160420911704309118046C1995
:100960007D098E099F09061717072807390708F020
:1009700076CF809114040E94610310928904109232
:1009800088041092F303DF91CF911F910F91FF9094
:10099000EF90DF90CF9008959D9191938F5F75CFE9
:1009A00085EEB0CF8091150490911604A0911704A4
:1009B000B0911804892B8A2B8B2B09F4A9CF0E94A4
:1009C00077010091150410911604209117043091BD
:1009D00018046C197D098E099F0906171707280747
:1009E000390708F095CFC5CFCF93DF93CDB7DEB7EA
:1009F00028970FB6F894DEBF0FBECDBF98E0EDE2AA
:100A0000F1E0DE01119601900D929A95E1F7909137
:100A10005805981708F48FEF90E0880F991F21E090
:100A200030E02C0F3D1F820F931FFC016081606836
:100A300070E080E595E028960FB6F894DEBF0FBE13
:100A4000CDBFDF91CF910C94080461E070E080E5A8
:100A500095E00E9408048BE39FE10197F1F78091F4
:100A60005905882319F080E00C94F404089570E08F
:100A700070640E94080481E090E00895089590E079
:100A800080E008958F929F92AF92BF92CF92DF92B3
:100A9000EF92FF921F93CF93DF93FC014A01AA24A8
:100AA000BB24C82DC32ED42EE52EFF241C2DD22FFF
:100AB0008085882361F0889E40011124C92D8C9D7A
:100AC000600111241D2D829FD0011124DB2FA685EA
:100AD000E184F2849385A91322C0CB01880F991F6A
:100AE000680F791F6E0D7F1DA385A60FB72FB11D4F
:100AF000CC93A485A60FB72FB11D1C938585680FD5
:100B0000711DFB01D083DF91CF911F91FF90EF907A
:100B1000DF90CF90BF90AF909F908F900895660F19
:100B2000771F660F771F6E0D7F1D252F33274427F4
:100B30005527882349F090E0829F7001839FF00C35
:100B4000929FF00C11242F2DA60FB72FB11D2C93BF
:100B5000CBCFCF92DF92EF92FF920F931F93CF9361
:100B6000DF93CDB7DEB729970FB6F894DEBF0FBE7F
:100B7000CDBF8C01DC0119968D919C91892B09F4D4
:100B800073C00E947701F801C784D088E188F28899
:100B90006C157D058E059F0520F46787708B818B12
:100BA000928BF801C784D088E188F2886C197D099E
:100BB0008E099F096C3271408105910510F3F894FC
:100BC000D80114968D919C9115979A8389831996D3
:100BD000ED91FC917F01BFEFEB1AFB0A80818987C1
:100BE000F80190810388F489E02DD80155968C9105
:100BF000992309F448C09081982B9887908180951B
:100C000089238F838F818C8388E08B8358856F81C4
:100C100049853B812C8189819A81D701508347FD89
:100C2000252F3A952083262F39F0441F00C000005D
:100C30006083000000C0F2CF38E04D916083000077
:100C4000019761F7D8015496FC93EE935397498727
:100C50003B832C839A83898378940E947701F801DF
:100C60006787708B818B928B29960FB6F894DEBFC5
:100C70000FBECDBFDF91CF911F910F91FF90EF90ED
:100C8000DF90CF9008959081982B988790818095E0
:100C900089238F838F818E8388E08D8358856F8130
:100CA00049853D812E8189819A81D701508347FDF5
:100CB000252F00C000C0208300C000C000C000C0BD
:100CC00000C060830000262F3A9541F0441F0000C9
:100CD00000C000C000C000C000C0E8CF38E04D91A7
:100CE00000C0608300C0019709F7D8015496FC93B7
:100CF000EE93539749873D832E83ACCFCF93DF93F9
:100D0000EC018E819F8197FD0CC061E00E943B0148
:100D100060E08E810E940D0181E08983DF91CF9197
:100D20000895198280E0FACFDC0180E0615090F0F4
:100D30009D919827E92FEF70F0E0ED55FF4F24913A
:100D4000E92FE295EF70F0E0ED54FF4FE491822F30
:100D50008E27ECCF0895DC012C911196ED91FC913A
:100D6000F8948181822B81839281322F3095932355
:100D7000928387E090E00197F1F78181832381835B
:100D800083E290E00197F1F790817894EFECF0E046
:100D90003197F1F7922381E009F480E00895FC0196
:100DA00090810180F281E02D292F209560FF14C0F1
:100DB000F8948281822382838181892B8183A3E2BB
:100DC000B0E01197F1F78281982B9283789487EDA8
:100DD00090E00197F1F70895F8948281822382834D
:100DE0008181892B8183AFEFB0E01197F1F7828188
:100DF000982B928378948FE090E0EBCFDF92EF9284
:100E0000FF920F931F93CF93DF93EC01D62EE42E26
:100E100008E010E0FF24F39461E08D2D8F2109F4A8
:100E200060E0CE010E94CF06FF0C01501109A1F72E
:100E3000E11010C0F894E981FA8191818881809550
:100E400089238183E981FA81928188818095892330
:100E500082837894DF91CF911F910F91FF90EF9053
:100E6000DF900895EF92FF920F931F93CF93DF933C
:100E70008C017B0140E065E50E94FE06E70188E009
:100E8000E80EF11C699140E0C8010E94FE06CE15F3
:100E9000DF05C1F7DF91CF911F910F91FF90EF9088
:100EA0000895FC0190810180F281E02DF894818108
:100EB000292F20958223818378943DE743E050E0F9
:100EC000315029F1DA011197F1F780818923C1F3BB
:100ED000F8948281822382838181892B8183789413
:100EE000ABE7B7E01197F1F7F89481818223818312
:100EF000A3E1B1E01197F1F78081982381E009F037
:100F000080E07894E3E6F6E03197F1F7089580E029
:100F100008956F927F928F929F92AF92BF92CF92DD
:100F2000DF92EF92FF920F931F93CF93DF938C0189
:100F3000EB0180919105909192050E9451078823C1
:100F400009F43FC0B80180919105909192050E94EB
:100F5000320740E06EEB80919105909192050E94DE
:100F6000FE067E016E0189E0C80ED11C8E01A090A4
:100F70009105B090920588E0882E912C712C662402
:100F80006394C5010E94AB0681117628660CE1E0EE
:100F90008E1A9108B1F7F80171928F01CE16DF0613
:100FA00031F780919105909192050E94510781300F
:100FB00041F4F70181917F01811105C0E017F1072C
:100FC000C1F790E008C068E0CE010E94940691E06D
:100FD00028852813F6CF892FDF91CF911F910F918C
:100FE000FF90EF90DF90CF90BF90AF909F908F9049
:100FF0007F906F900895CF92DF92EF92FF920F93C0
:101000001F93CF93DF93CDB7DEB729970FB6F89430
:10101000DEBF0FBECDBF8C01BE016F5F7F4F0E9450
:101020008907811105C060E070E08EEF92EC4EC040
:101030008A81C12CD12C760187FF06C0C12CD12C0E
:10104000F8EFEF2EFF24FA94F801908149819B3349
:1010500009F04BC02D8127FF48C040FDE4CF042F8D
:1010600010E030E020E073E0000F111F221F331F5B
:101070007A95D1F7B901A801407E57706627772786
:1010800090E0B0E0A0E08C019D01EBE0000F111FAB
:10109000221F331FEA95D1F7042B152B262B372B54
:1010A0000C291D292E293F29013854EE15075FEF21
:1010B000250735070CF4B7CFC901B8010E94B31A50
:1010C00020E030E040E05CE30E94121B29960FB65E
:1010D000F894DEBF0FBECDBFDF91CF911F910F916E
:1010E000FF90EF90DF90CF900895082F10E0102F21
:1010F0000027110F110F110FF8E04F9FA0011124CD
:10110000042B152B012E000C220B330B0C291D294F
:101110002E293F29903141F66885662329F270E037
:101120008F81AB01481B5109CA019695982F8827DA
:10113000979587950E94501DCB01770FAA0BBB0B8B
:1011400053E0000F111F221F331F5A95D1F700786B
:10115000277033270052110921093109800F911F8F
:10116000A21FB31F97018601082B192B2A2B3B2B9B
:101170009BCF0F931F93CF93DF93CDB7DEB7299704
:101180000FB6F894DEBF0FBECDBF8C01BE016F5FFE
:101190007F4F0E948907882361F08D81F80190813B
:1011A0009B3311F487FD0BC08F3359F020F48F313E
:1011B000A1F080E007C08F3591F08F37D1F78CE038
:1011C00001C08AE029960FB6F894DEBF0FBECDBFEE
:1011D000DF91CF911F910F91089589E0F3CF8BE0BC
:1011E000F1CFBF92CF92DF92EF92FF920F931F93B6
:1011F000CF93DF93EC01B62EC72E8D85811105C0EC
:10120000CE010E94510781110EC01B861D861C86CF
:1012100080E0DF91CF911F910F91FF90EF90DF90D1
:10122000CF90BF90089540E060EFCE010E94FE068F
:1012300001E0E12CD12C11E0CE010E94AB06F82E8A
:10124000CE010E94AB0691E0F91218C0813099F5E9
:101250001134D8F2DB86D11002C081E08D878B81FA
:10126000882399F22396EB2DFC2DCF010896299126
:101270002193E817F907D9F781E0CBCFEE2DF0E005
:10128000F8120FC08B851817A0F4DE01AE0FBF1F38
:1012900013968C91802379F4F12C193008F41C8773
:1012A000D12EEC0FFD1F8381902F9095892383838E
:1012B0000AC08113F1CFFE01EE0DF11D8381802B59
:1012C0008383FF24F3946F2DCE010E94CF061F5F0E
:1012D000000F11F4E39401E087E08E1508F0ACCF25
:1012E000B7CF0F931F93CF93DF93CDB7DEB7299777
:1012F0000FB6F894DEBF0FBECDBF8C01FC0180811C
:10130000803109F46CC0BE016F5F7F4FC8010E943D
:101310008907882309F4C3C08D818F3709F45FC022
:101320008FE78D8380919105909192050E945107DE
:10133000B80180919105909192050E94320740E09A
:101340006EE480919105909192050E94FE0640E026
:101350006B8180919105909192050E94FE0640E07C
:101360006C8180919105909192050E94FE06F80192
:101370008081803141F040E06D81809191059091B4
:1013800092050E94FE068091910590919205209110
:101390008E05222311F10E945107882301F1B80123
:1013A00080919105909192050E94320740918805A5
:1013B00068E480919105909192050E94FE068091CB
:1013C000880581114FC064E170E080E090E00E94E8
:1013D0009C0180919105909192050E9451078CE0AB
:1013E00080938B0580918F05823008F457C0E0917F
:1013F0009105F09192051386158614861286118642
:1014000010861782168215821482138210E0809152
:101410008F05181708F042C080918B058C30F1F1D0
:10142000BE016F5F7F4F80919105909192050E9460
:10143000F1088823A9F067E0CE0101960E94940686
:10144000988589130DC08981803131F1CE010196D3
:101450000E94B90890918B05981710F480938B0522
:101460001F5FD5CF80918905882329F060E08091A6
:101470008A050E940D0164E170E080E090E00E9426
:101480009C0180918905882309F4A3CF61E08091B4
:101490008A050E940D019DCF8CE0DCCF81E029966A
:1014A0000FB6F894DEBF0FBECDBFDF91CF911F9175
:1014B0000F910895CF93DF93EC0188819981009774
:1014C00011F00E94281E198218821D821C821B8224
:1014D0001A82DF91CF910895FC018081918100975C
:1014E00011F00C94281E0895FC0101900020E9F7EA
:1014F0003197AF01481B590BBC0187EA94E00C946B
:10150000DD018F929F92AF92BF920F931F93CF9363
:10151000DF93CDB7DEB7A1970FB6F894DEBF0FBE4D
:10152000CDBF19A2423008F44AE08E010F5D1F4F73
:10153000842E912CB12CA12CA50194010E94641D34
:10154000E62FB901CA01EA30F4F4E05DD801EE9368
:101550008D01232B242B252B79F790E080E0109729
:1015600019F0CD010E94740AA1960FB6F894DEBF5F
:101570000FBECDBFDF91CF911F910F91BF90AF9064
:101580009F908F900895E95CE1CF0C94740ACF93FB
:10159000DF93BC01990F880B990B4AE00E94810AE6
:1015A000EC018BE691E00E94740A8C0F9D1FDF9185
:1015B000CF910895CF93DF9380918E04882361F0BB
:1015C000C0918C04D0918D04CF3FD10519F014F057
:1015D000CFEFD0E0D7FF02C0D0E0C0E061E086E00E
:1015E0000E943B01209701F560E086E00E940D011A
:1015F00085E791E00E94C50ACE010E94C70A8AE8E9
:1016000091E00E94C50A80918E04811154C081E747
:1016100091E00E94C50A88E991E00E94C50ACE01C6
:10162000DF91CF910C94C70ACF3FD10511F461E04F
:10163000DCCFE3EDF0E0E491E33019F140F4E13088
:10164000B1F0E230C9F0C038D1058CF7CDCFE7302A
:1016500011F1E83041F1E430B1F78091800080620F
:1016600080938000D0938B00C0938A00C1CF84B553
:10167000806884BDC7BDBCCF84B5806284BDC8BD51
:10168000B7CF80918000806880938000D0938900DC
:10169000C0938800ADCF8091B00080688093B00087
:1016A000C093B300A5CF8091B00080628093B0005A
:1016B000C093B4009DCF8EE691E0ABCFCF93DF9384
:1016C0000E94740AEC018BE691E00E94740A8C0F70
:1016D0009D1FDF91CF9108954F925F926F927F92FD
:1016E0008F929F92AF92BF92CF92DF92EF92FF9232
:1016F0000F931F93CF936B017C01742EAC019B0160
:101700000E94371D882399F08AE991E0CF911F91BB
:101710000F91FF90EF90DF90CF90BF90AF909F9090
:101720008F907F906F905F904F900C94740A460159
:101730005701E894B7F82FEF3FEF4FE75FE7C50198
:10174000B4010E94371D81110DC02FEF3FEF4FE70D
:101750005FE7C501B4010E94AC1A18161CF48EE9AB
:1017600091E0D4CF2FEF3FEF4FE75FE4C701B60121
:101770000E94321D18161CF482EA91E0C7CF2FEFA9
:101780003FEF4FE75FECC701B6010E94AC1A87FD3F
:10179000F3CF20E030E0A901C701B6010E94AC1AE6
:1017A00010E000E087FF0AC06DE287EA94E00E9443
:1017B000AF028C01F7FAF094F7F8F094C0E060E023
:1017C00070E080E09FE37C1641F020E030E040E2F2
:1017D00051E40E94911CCF5FF6CFA70196010E94B1
:1017E000251C2B013C010E94031D4B015C014AE0BA
:1017F0000E94810A7C01E00EF11ECC23C1F1C501DB
:10180000B4010E94B11A9B01AC01C301B2010E9454
:10181000241C4B015C016EE287EA94E00E94AF0257
:10182000E80EF91EC15018F120E030E040E251E42A
:10183000C501B4010E94121B2B013C010E94031D33
:101840004B01B12CA12C4AE0C501B4010E94810AD0
:10185000E80EF91EC501B4010E94B11A9B01AC014A
:10186000C301B2010E94241C4B015C01DBCFC70104
:10187000CF911F910F91FF90EF90DF90CF90BF908D
:10188000AF909F908F907F906F905F904F90089552
:101890004F925F926F927F928F929F92AF92BF9280
:1018A000CF92DF92EF92FF920F931F93CF93DF932C
:1018B000CDB7DEB72C970FB6F894DEBF0FBECDBF05
:1018C00080919105909192050E94510740E06CEC47
:1018D00080919105909192050E94FE0640918805A5
:1018E00064E480919105909192050E94FE060E9409
:1018F000CF016B017C0180918C058823E1F0809100
:101900008D05882309F49FC08091880581119BC0B3
:1019100080919105909192050E94AB06813059F01B
:101920000E94CF016C197D098E099F096E3E72409D
:101930008105910568F380E191E00E94FB072B018E
:101940003C0188E091E00E94FB074B015C0180E0D4
:1019500091E00E94FB076B017C0186EA91E00E9406
:101960005E0B8CEC91E00E94C50A42E0C301B2011B
:101970000E946C0B8AED91E00E945E0B8DED91E070
:101980000E94C50A42E0C501B4010E946C0B8AEDB9
:1019900091E00E945E0B80EF91E00E94C50A42E058
:1019A000C701B6010E946C0B8AED91E00E945E0BAC
:1019B00049825A826B827C828D829E82AF82B886F7
:1019C000C986DA86EB86FC86CE0101967C0110E0A2
:1019D00000E0F70181909190A190B1907F0120915A
:1019E0002201309123014091240150912501C5012C
:1019F000B4010E94AC1A87FD4FC020911A013091AA
:101A00001B0140911C0150911D01C501B4010E94B0
:101A1000321D18160CF440C020911E0130911F0198
:101A20004091200150912101C501B4010E94AC1ADE
:101A300020E035EA4FEF50E0181694F120E03FEF38
:101A400040E050E02DC0E0918B05E9508EEE92E031
:101A5000E33038F4F0E0EE0FFF1FEB5CFE4F8081C7
:101A600091816C01F12CE12C80918905882329F06A
:101A700060E080918A050E940D01C701B6010E94B5
:101A80009C0180918905882309F455CF61E08091FC
:101A90008A050E940D014FCF20E030E04FEF50E06B
:101AA00080915E0590915F050817190728F4B80129
:101AB0008CE595E00E9442050F5F1F4F0330110532
:101AC00009F087CF8CE595E02C960FB6F894DEBF31
:101AD0000FBECDBFDF91CF911F910F91FF90EF907F
:101AE000DF90CF90BF90AF909F908F907F906F903E
:101AF0005F904F900C94A905CF93DF9342E00E9432
:101B00006C0BEC018BE691E00E94740A8C0F9D1F18
:101B1000DF91CF910895CF93DF93FC0144815581EC
:101B20006081718187EA94E00E94DD01EC018BE61F
:101B300091E00E94740A8C0F9D1FDF91CF91089550
:101B4000AF92BF92CF92DF92EF92FF920F931F93CB
:101B5000CF93DF93DC01CD90DC901197C114D104B9
:101B600039F01496CD91DC918C017601209761F4C7
:101B7000DF91CF911F910F91FF90EF90DF90CF9069
:101B8000BF90AF90089575015701BFEFAB1ABB0A24
:101B9000F7018081082E000C990B0E948B1A892B6B
:101BA00091F72197CC0DDD1D8881082E000C990B33
:101BB0000E948B1A892B29F0CE15DF0510F0219792
:101BC000F3CFAE014F5F5F4F4E195F09D8011596F5
:101BD0005C934E931497CE14DF0420F4B701C60132
:101BE0000E946E1FD801ED91FC91119714968D9172
:101BF0009C91E80FF91F1082BBCFFB0144815581F6
:101C0000FC01248135812417350778F0808191818A
:101C1000009759F0FB01608171816115710529F010
:101C20000E94991F21E0892B09F020E0822F08955E
:101C3000FC0124813581232B39F421E0FB018081D3
:101C4000882349F020E007C0808191810E94891F8C
:101C500021E0892BB9F7822F08950F931F93CF931B
:101C6000DF93EC0188819981009759F02A813B81AB
:101C70002617370730F081E0DF91CF911F910F9148
:101C800008958B016F5F7F4F0E94B11E009759F03E
:101C9000998388831B830A832C813D81232B59F7E9
:101CA000FC011082E8CF80E0E7CFEF92FF920F9324
:101CB0001F93CF93DF936115710541F480E0DF91AD
:101CC000CF911F910F91FF90EF900895411551050D
:101CD000B1F07B01EC010C811D81040F151FB801CF
:101CE0000E942D0E882351F3288139818C819D819A
:101CF000B701820F931F0E94921F1D830C8381E006
:101D0000DECFCF93DF93EC01FB01448155816081ED
:101D100071810E94550E811103C0CE010E945A0AA2
:101D2000CE01DF91CF910895EF92FF920F931F9311
:101D3000CF93DF93EC017B01198218821B821A82F8
:101D40001D821C82FB0101900020E9F731978F0171
:101D5000061B170BB8010E942D0E811109C0CE0180
:101D6000DF91CF911F910F91FF90EF900C945A0A41
:101D70001D830C83B70188819981DF91CF911F91D9
:101D80000F91FF90EF900C94921F9F92AF92BF9291
:101D9000CF92DF92EF92FF920F931F93CF93DF9337
:101DA0007C016B015A0189012417350720F48B2D22
:101DB0005901042F182F6DE671E0C7010E94940E9F
:101DC000D6011496CD91DC91AC16BD0650F50C17DA
:101DD0001D0708F4E801D601ED91FC911197EC0F75
:101DE000FD1F908010820D911C910A0D1B1D011585
:101DF000110571F0F80101900020E9F731975F01BA
:101E0000A01AB10AB501C7010E942D0E811116C09A
:101E1000C7010E945A0AD6018D919C91C80FD91F03
:101E20009882C701DF91CF911F910F91FF90EF90A2
:101E3000DF90CF90BF90AF909F900895F701B5824B
:101E4000A482B801808191810E94921FE4CF85ED28
:101E50008093BC008091150490911604A091170402
:101E6000B09118040796A11DB11D23E0B695A79562
:101E7000979587952A95D1F72091BC0024FD03C042
:101E800010925E04089540911504509116046091DB
:101E9000170470911804452B462B472B69F30097C4
:101EA000A105B10541F02AE22A95F1F700C001979A
:101EB000A109B109E1CF809114040C9461031F9230
:101EC0000F920FB60F9211242F933F938F939F93EE
:101ED000AF93BF9380919F049091A004A091A1041F
:101EE000B091A20430919E0423E0230F2D3758F5C2
:101EF0000196A11DB11D20939E0480939F04909391
:101F0000A004A093A104B093A2048091A304909193
:101F1000A404A091A504B091A6040196A11DB11D31
:101F20008093A3049093A404A093A504B093A60463
:101F3000BF91AF919F918F913F912F910F900FBEC5
:101F40000F901F90189526E8230F0296A11DB11D32
:101F5000D2CF1F920F920FB60F9211242F933F935F
:101F60004F935F936F937F938F939F93AF93BF93A1
:101F7000EF93FF9387EA94E00E948D02FF91EF9127
:101F8000BF91AF919F918F917F916F915F914F9191
:101F90003F912F910F900FBE0F901F9018951F9299
:101FA0000F920FB60F9211242F938F939F93EF935D
:101FB000FF93E091B704F091B8048081E091BD04F3
:101FC000F091BE0482FD1BC090818091C0048F5FA0
:101FD0008F732091C104821741F0E091C004F0E0BA
:101FE000E955FB4F958F8093C004FF91EF919F912E
:101FF0008F912F910F900FBE0F901F901895808199
:10200000F4CF1F920F920FB60F9211242F933F938C
:102010004F935F936F937F938F939F93AF93BF93F0
:10202000EF93FF938091B900887F803609F44AC00E
:10203000F0F5883209F4A7C018F5803109F49BC087
:10204000B8F4882309F4F9C0883009F494C0FF91EA
:10205000EF91BF91AF919F918F917F916F915F9120
:102060004F913F912F910F900FBE0F901F90189599
:10207000883109F488C0803251F780935D0414C020
:10208000803409F49DC040F48033B9F38833F9F605
:1020900080935D0485ECB0C0803509F485C0883537
:1020A00009F496C0883499F60E94270FD0CF88395A
:1020B00009F48CC038F5883729F050F4883611F0CF
:1020C000803729F683E080935E0410925C0457C049
:1020D000883809F47BC0803919F0803809F0B7CF0F
:1020E00080915C04803208F071C0E0915C0481E072
:1020F0008E0F80935C048091BB00F0E0E45CFB4FAA
:1021000080833DC0803B39F0E0F4803A09F479C027
:10211000883A09F09CCF84E080935E0410923B04DF
:1021200010923A04E0918604F09187040995809119
:102130003A0481110FC081E080933A0410921A048E
:1021400009C0803C09F4A6CF883C09F4A3CF883BA2
:1021500009F07DCFE0913B0481E08E0F80933B043A
:10216000F0E0E65EFB4F80818093BB0090913B04E2
:1021700080913A0429C0809183048093BB0085EC50
:102180008093BC0064CF9091820480918104981761
:1021900058F5E091820481E08E0F80938204F0E094
:1021A000EF59FB4F8081E9CFE091820481E08E0FEF
:1021B000809382048091BB00F0E0EF59FB4F808355
:1021C00090918204809181049817C8F285E8D8CF55
:1021D000E091820481E08E0F809382048091BB00A5
:1021E000F0E0EF59FB4F80838091600481115CCF58
:1021F00081E080935F0484EA8093BC0010925E04C7
:1022000026CF85EC8093BC0010925E0480915C0424
:10221000803230F4E0915C04F0E0E45CFB4F10822B
:1022200060915C0470E0E0918404F09185048CE39B
:1022300094E0099510925C040ACF10925D0434CFAB
:10224000CF92DF92EF92FF920F931F93CF93DF9382
:10225000EC016B01F42EE52E198218861F86188A70
:10226000198A1A8A81E08E878B871C8692E09D8767
:1022700088838B01000F111F060F171F1D830C830E
:10228000C8010E948C1D9A878987009789F1A8014F
:1022900070E060E00E94771FDB82CA82FE82EF82DC
:1022A0008981882341F061E08F2D0E943B0160E02D
:1022B0008F2D0E940D018F2D9E2DFC01EB50FF4FA5
:1022C000E491F0E0EE0FFF1FEF51FF4F25913491A5
:1022D0003C8B2B8BFC01E75FFE4FE491ED8BDF9194
:1022E000CF911F910F91FF90EF90DF90CF900895C5
:1022F0001D821C821B821A82D1CFE7EAF4E013828E
:10230000128288EE93E0A0E0B0E084839583A683F8
:10231000B7832FE331E03183208325EC30E035872C
:10232000248724EC30E03787268720EC30E0318B9F
:10233000208B21EC30E0338B228B22EC30E0358B8C
:10234000248B26EC30E0378B268B118E128E138E69
:10235000148EE4E4F5E01382128284839583A683CD
:10236000B78381E591E09183808360E087E00E94FC
:102370003B01E0E1F1E0E491AFE9B5E0EC93ECEF93
:10238000F0E0E491F0E0EE0FFF1FE551FF4F859183
:10239000949112969C938E9311971B961C921B9767
:1023A0001D961C921D971C961C921C971A961C92A7
:1023B0001A9719961C92199718961C9218971796A7
:1023C0001C92179716961C92169715961C921597A5
:1023D00014961C92149713961C921397E8E8F5E054
:1023E00017821086108289E0838381E0848385834D
:1023F00086831182168A158A8FEF838B148AB2879F
:10240000A1874AE050E062E070E082E795E00E9438
:10241000201145E050E063E070E08CE595E00E941B
:102420002011E0E5F5E01382128283E691E09183CA
:10243000808311868EE3848380E1828782E08387B4
:102440000895CF93DF93CDB7DEB764970FB6F894B6
:10245000DEBF0FBECDBF789484B5826084BD84B5E5
:10246000816084BD85B5826085BD85B5816085BD8F
:1024700080916E00816080936E0010928100809147
:1024800081008260809381008091810081608093CF
:102490008100809180008160809380008091B100F4
:1024A00084608093B1008091B00081608093B0001F
:1024B00080917A00846080937A0080917A008260B3
:1024C00080937A0080917A00816080937A00809175
:1024D0007A00806880937A001092C10061E088E001
:1024E0000E943B0161E089E00E943B0161E08CE0D9
:1024F0000E943B0162E082E00E943B0161E086E0D5
:102500000E943B01E091B704F091B80482E080831F
:10251000E091B304F091B4041082E091B504F0911D
:10252000B6048FEC80831092BF04E091BB04F0915D
:10253000BC0486E08083E091B904F091BA04808104
:1025400080618083E091B904F091BA048081886051
:102550008083E091B904F091BA048081806880831F
:10256000E091B904F091BA0480818F7D808310924C
:102570008B0410928A0410928904109288040E949D
:1025800043038BED91E090938704809386048CED58
:1025900091E0909385048093840480E180935505B5
:1025A00080915B05823018F098E1909355058093F7
:1025B00058058BE39DE00197F1F760915505606246
:1025C00070E080E595E00E9408048BE496E40197B2
:1025D000F1F760915505606270E080E595E00E943A
:1025E000080483E592E00197F1F760915505606278
:1025F00070E080E595E00E940804609155056062F6
:1026000070E080E595E00E94080484E08093560520
:102610006CE070E080E595E00E9408040E942505CA
:1026200082E08093570566E070E080E595E00E94C7
:10263000080462E070E080E595E00E9408048BE306
:102640009FE10197F1F782E795E00E947E0682E71D
:1026500095E00E94A90582E795E00E94BB008CE509
:1026600095E00E947E068CE595E00E94A9058CE528
:1026700095E00E94BB0013E001E0E0919105F0912C
:102680009205138615861486128611861086178287
:10269000168215821482138210928F051092900573
:1026A00062E370E080E090E00E949C01BE016F5FF9
:1026B0007F4F80919105909192050E94F1088823A7
:1026C00009F45FC067E0CE0101960E9494069885E8
:1026D0008913ECCF80918F058F5F80938F0589815F
:1026E000883231F008F044C0803111F08232F1F6C6
:1026F000809190058F5F809390058091880581116E
:1027000028C080919105909192050E945107BE01C9
:102710006F5F7F4F80919105909192050E943207E3
:1027200040E064EB80919105909192050E94FE0635
:1027300080919105909192050E94AB06F82E8091B0
:102740009105909192050E945107F11002C00093EB
:1027500088058981803199F0CE0101960E94B908DF
:1027600090918B05981708F0A1CF80938B059ECF91
:102770008B3309F4BDCF823409F098CFB9CF8CE008
:10278000EFCF80918F05811103C0115009F075CFF3
:1027900080E191E00E94710988E091E00E94710956
:1027A00080E091E00E94710983E392E00E94C50AF3
:1027B0006091220170912301809124019091250163
:1027C00042E00E946C0B88E991E00E94C50A60918A
:1027D0001E0170911F01809120019091210142E022
:1027E0000E946C0B88E991E00E94C50A60911A0171
:1027F00070911B0180911C0190911D010E947C0D24
:1028000061E08CE00E940D0188EA92E00E945E0B7C
:1028100010928E0410928D0410928C040E94DA0A99
:10282000EFECF0E08491EBE0F1E00491E7EFF0E011
:10283000149111112FC080911801909119010197E5
:1028400009F43AC090E080E0909319018093180158
:1028500087EA94E00E946D02181619060CF0A1C0D8
:102860006DE671E0CE010F960E94940E0E942D023B
:1028700097FD4FC08A30910509F44BC089831A82B5
:1028800041E050E0BE016F5F7F4FCE010F960E9486
:10289000550EECCF81110E94E400E12FF0E0EE0F25
:1028A000FF1FE551FF4FA591B491EC91E02309F48E
:1028B000C2CF81E090E0C8CF62E370E080E090E0BA
:1028C0000E949C011091260181E018271093260197
:1028D00060E088E00E940D0160E089E00E940D0147
:1028E00060E08CE00E940D0189E592E0112371F017
:1028F0008DE392E00E945E0B109294041092930478
:1029000061E08CE00E940D0188EA92E00E945E0B7B
:1029100099CFCE010F960E94A00D67E772E0CE011D
:1029200001960E94940EBE01615F7F4FCE01019619
:102930000E94810E8C0141E050E069E872E00E9443
:10294000550E811103C0C8010E945A0AC8010E9495
:102950008B0DCE0101960E946C0A6BE872E0CE01ED
:102960000F960E94180E882309F48DC081E0809391
:102970002601109294041092930460E088E00E9473
:102980000D0160E089E00E940D0161E08CE00E9491
:102990000D0183E992E00E945E0BCE010F960E942A
:1029A0006C0A80912601882309F4CBC30E94CF01D1
:1029B0000091950410919604209197043091980409
:1029C000601B710B820B930B683E73408105910570
:1029D00060F00E94480C0E94CF01609395047093B0
:1029E000960480939704909398040E94CF016B0102
:1029F0007C0180919304909194048130910509F4B5
:102A000054C38230910509F475C3892B79F58091FF
:102A10008F0490919004A0919104B0919204A70129
:102A20009601281B390B4A0B5B0BDA01C901883868
:102A30009341A105B105D0F060E08CE00E940D014A
:102A400061E088E00E940D018EEB93E00E945E0B36
:102A500081E090E09093940480939304C0928F045B
:102A6000D0929004E0929104F092920480E090E081
:102A7000892B09F4D5CE0E947902882309F4D0CE9F
:102A80000E940000CDCE62EB72E0CE010F960E9454
:102A9000180E882389F01092260160E088E00E94D9
:102AA0000D0160E089E00E940D0160E08CE00E9471
:102AB0000D0189EB92E06FCF6FED72E0CE010196D0
:102AC0000E94940EBE016F5F7F4FCE010F960E9451
:102AD000FD0D182FCE0101960E946C0A112309F4F6
:102AE00048C02B893C8944E050E0BE01615F7F4FC4
:102AF000CE0109960E94C50E0E94250580E00E9425
:102B0000F40420E130E050E040E0BE01675F7F4F19
:102B1000CE0101960E94C50E4D815E8169817A8148
:102B200080E595E00E94DD01CE0101960E946C0ACD
:102B30008D859E854197D0F081E00E94F40420E2CB
:102B400030E040E150E0BE01675F7F4FCE0101966B
:102B50000E94C50E4D815E8169817A8180E595E094
:102B60000E94DD01CE0101960E946C0ACE010996F9
:102B7000D2C064EE72E0CE0101960E94940EBE01B6
:102B80006F5F7F4FCE010F960E94FD0D182FCE0173
:102B900001960E946C0A112309F4C0C02B893C895C
:102BA00043E050E0BE01615F7F4FCE0101960E947D
:102BB000C50E68EE72E0CE0101960E94180EC12C7F
:102BC000D12C7601DA94811177C06EEE72E0CE01DD
:102BD00001960E94180EC12CD12C7601EA94811125
:102BE0006BC063EF72E0CE0101960E94180EC12CFB
:102BF000D12C7601CA9481115FC068EF72E0CE01DA
:102C000001960E94180EC12CE5EADE2EEE24EA940D
:102C1000F12C811151C060E073E0CE0101960E9459
:102C2000180EC12CDD24DA94ED2CF12C811144C056
:102C300069E073E0CE0101960E94180ECC24CA947C
:102C4000DC2CE12CF12C811137C061E173E0CE0165
:102C500001960E94180E50E8C52ED12C76018111E4
:102C60002BC069E173E0CE0101960E94180E4BEC77
:102C7000C42E40ECD42EEE24EA94F12C81111CC019
:102C80006EE173E0CE0101960E94180ECC24CA9426
:102C9000DC2CEC2CF12C81110FC065E273E0CE012D
:102CA00001960E94180EC12CD12C7601882321F0A8
:102CB000CC24CA94D12C760180917405909175052D
:102CC000892B41F0A701960170E060E082E795E072
:102CD0000E9442058091740590917505029740F01D
:102CE000A701960161E070E082E795E00E9442054D
:102CF00082E795E00E94A9058DE293E00E94C50A53
:102D000040E1C701B6010E94810A8BE691E00E9472
:102D1000740ACE0101960E946C0A3FCE6CE373E008
:102D2000CE0101960E94940EBE016F5F7F4FCE01CF
:102D30000F960E94FD0D182FCE0101960E946C0A7D
:102D4000112309F403C12B893C8947E050E0BE01FF
:102D5000615F7F4FCE0109960E94C50ECD84DE844F
:102D6000C114D10409F402CFE984FA846CE270E062
:102D7000C7010E947E1F8C010E191F09892B11F4B7
:102D80000FEF1FEFF701EC0DFD1DB0801082E984FD
:102D9000FA846CE270E0C7010E94A71FCE0CDF1C12
:102DA000F601B082009721F4EE24EA94FE2C05C0CF
:102DB00029853A857C01E21AF30A101611060CF0F7
:102DC000D5CE0E151F050CF0D1CE980150E040E095
:102DD000BE01675F7F4FCE0101960E94C50E8981BB
:102DE0009A81412C512C3201009721F00E94FB184E
:102DF0002B013C01CE0101960E946C0AA8014F5F95
:102E00005F4F9701BE01675F7F4FCE0101960E9421
:102E1000C50E89819A81812C912C5401009721F053
:102E20000E94FB184B015C01CE0101960E946C0AC6
:102E30002D853E85A7014F5F5F4FBE01675F7F4FC6
:102E4000CE0101960E94C50E89819A81C12CD12C98
:102E50007601009721F00E94FB186B017C01CE01E6
:102E600001960E946C0A40922201509223016092C6
:102E700024017092250180921E0190921F01A09260
:102E80002001B0922101C0921A01D0921B01E09260
:102E90001C01F0921D0184E493E00E94C50A609138
:102EA000220170912301809124019091250142E03B
:102EB0000E946C0B86E693E00E94C50A60911E0199
:102EC00070911F01809120019091210142E00E94A8
:102ED0006C0B87E793E00E94C50A60911A0170911C
:102EE0001B0180911C0190911D010E947C0D83E3C8
:102EF00092E00E94C50A60912201709123018091A5
:102F000024019091250142E00E946C0B88E991E038
:102F10000E94C50A60911E0170911F0180912001DD
:102F20009091210142E00E946C0B88E991E00E949F
:102F3000C50A60911A0170911B0180911C0190914A
:102F40001D010E947C0D0E94480C10CE63E873E0C6
:102F5000CE0101960E94940EBE016F5F7F4FCE019D
:102F60000F960E94FD0D182FCE0101960E946C0A4B
:102F7000112309F486C02B893C8946E050E0BE014C
:102F8000615F7F4FCE0109960E94C50ECE01099662
:102F90000E94A00D6EE671E0CE0109960E94180E07
:102FA000882391F081E080938E0480918C0490912D
:102FB0008D04892B31F486E990E090938D04809301
:102FC0008C040E94DA0AD2CD61E771E0CE01099645
:102FD0000E94180E882319F010928E04F2CF6AE82E
:102FE00073E0CE0101960E94940EBE016F5F7F4F89
:102FF000CE0109960E94FD0D182FCE0101960E9468
:103000006C0A112351F12D853E8546E050E0BE014A
:10301000675F7F4FCE0101960E94C50E89819A811C
:10302000C12CD12C7601009719F00E94FF186B017A
:10303000CE0101960E946C0A2FEFC216D10421F036
:103040001CF0CC24CA94D12CD7FE02C0D12CC12CA8
:10305000D0928D04C0928C04B4CF61E973E0CE01AC
:1030600001960E94940EBE01675F7F4FCE010196CC
:103070000E94810E0E948B0DCE0101960E946C0A67
:1030800075CD68EA73E0CE0101960E94940EBE01F0
:10309000615F7F4FCE0101960E94810E0E948B0DD1
:1030A000CE0101960E946C0A78CC80918F04909199
:1030B0009004A0919104B0919204A7019601281B5D
:1030C000390B4A0B5B0BDA01C901883B9B40A10518
:1030D000B10508F4CBCC60E088E00E940D0161E00E
:1030E00089E00E940D0188EC93E00E945E0B82E073
:1030F00090E0B0CC80918F0490919004A0919104C5
:10310000B0919204A7019601281B390B4A0B5B0B67
:10311000DA01C901883E9340A105B10508F4A6CCA7
:1031200060E089E00E940D0161E08CE00E940D01E9
:1031300088EA92E00E945E0B10929404109293042D
:103140008DCC0E94CF0100919A0410919B04209194
:103150009C0430919D046B017C01C01AD10AE20AE3
:10316000F30A97018601043F11402105310508F457
:103170007DCC60939A0470939B0480939C049093FD
:103180009D041091990481E0182710939904612FF0
:1031900088E00E940D01612F89E00E940D01612FDE
:1031A0008CE00E940D018AE192E0112311F082E08F
:1031B00092E00E945E0B5ACC809165059091660565
:1031C0000E94281E809162059091630597FD03C0BF
:1031D00060E00E943B0180917B0590917C050E94FC
:1031E000281E809178059091790597FD03C060E0D5
:1031F0000C943B010895662777270C943B191F9385
:10320000FC0199278827BC01E89411911032E9F359
:10321000193010F01E30C8F31B3251F01D3249F442
:10322000689406C00E942619610F711D811D911DB1
:10323000119110531A30B0F33EF49095809570952B
:1032400061957F4F8F4F9F4F1F910895592F482FA2
:10325000372F262F660F771F881F991F660F771F3E
:10326000881F991F620F731F841F951F660F771F9A
:10327000881F991F0895B0E0A0E0E1E4F9E10C9403
:10328000E41B5C017B016115710519F0DB018D9375
:103290009C9385010F5F1F4FF501D0818D2F90E02A
:1032A0000E948B1A6C01892BB9F5DD32B9F50F5FDD
:1032B0001F4FD5011196DC91C1E05801F1E0AF1A22
:1032C000B10843E050E060E770E0C5010E94941A45
:1032D000892B69F5680182E0C80ED11C45E050E0F9
:1032E0006BE670E0C6010E94941A892B21F46801F4
:1032F00097E0C90ED11CE114F10419F0D701CD9269
:10330000DC9260E070E080E89FEFC111FFC060E0F8
:1033100070E080E89FE7FAC05801BBCFDB3229F4A8
:1033200085010E5F1F4FF501D181C0E0C6CF43E09C
:1033300050E068E670E0C5010E94941A892BE9F01C
:10334000F80110E000E020E030E0A9015F01B0EDFD
:103350008B2E8D0E89E08815C8F19C2E689491F80B
:103360008C2F8870C2FF16C0811102C00F5F1F4FE3
:103370003196D501DC91C92DE9CFE114F10429F092
:103380000E5F1F4FF7011183008360E070E080EC57
:103390009FE7BCC0882311F001501109A5E0B0E0FF
:1033A0000E94D31B9B01AC01220F331F441F551FEA
:1033B000280D311D411D511D283999E9390749074B
:1033C00099E15907A8F2C6609C2ED2CFAEEF8A12BF
:1033D00006C0C3FD3CC09C2E689493F8C9CFDF7D26
:1033E000D534A9F580818D3239F4C061DF011296A0
:1033F000818162E070E006C0DF018B32C1F311967B
:1034000061E070E080535D01A61AB70A8A30F8F4D3
:10341000E0E8CE16ECE0DE065CF4B601660F771F3E
:10342000660F771FC60ED71ECC0CDD1CC80ED11C34
:103430005D01FFEFAF1ABF0A8C9180538A30A8F16B
:10344000C4FF03C0D194C194D1080C0D1D1DC1FF50
:1034500009C0E114F10431F081E0A81AB108D701E4
:10346000AD92BC92CA01B9010E94B11AC370C330B7
:1034700009F490584B015C0120E030E0A9010E9462
:10348000AC1A882309F440C0CFE9D0E017FF05C08B
:10349000119501951109C7E8D0E06E01B8E1CB1A8A
:1034A000D10880E2E82EF12C0FC0D501B1CFFE018A
:1034B00025913591459154910E191F09C501B4010B
:1034C0000E94121B4B015C01D501C4010E151F05A2
:1034D00074F72497F594E794CC16DD06A9F78A2FA4
:1034E000880F8B2F881F8F3F49F020E030E0A90123
:1034F000C501B4010E94AC1A811106C082E290E0BD
:103500009093AE058093AD05C501B401CDB7DEB78C
:10351000ECE00C94001C91110C947F1B803219F08C
:1035200089508550C8F70895FB01DC014150504097
:1035300088F08D9181341CF08B350CF4805E6591A0
:1035400061341CF06B350CF4605E861B611171F305
:10355000990B0895881BFCCF0E94EE1A08F481E0B5
:103560000895E89409C097FB3EF490958095709576
:1035700061957F4F8F4F9F4F9923A9F0F92F96E9BF
:10358000BB279395F695879577956795B795F11134
:10359000F8CFFAF4BB0F11F460FF1BC06F5F7F4FD1
:1035A0008F4F9F4F16C0882311F096E911C07723E3
:1035B00021F09EE8872F762F05C0662371F096E8EC
:1035C000862F70E060E02AF09A95660F771F881FBB
:1035D000DAF7880F9695879597F90895990F00085F
:1035E000550FAA0BE0E8FEEF16161706E807F907D5
:1035F000C0F012161306E407F50798F0621B730B70
:10360000840B950B39F40A2661F0232B242B252BF0
:1036100021F408950A2609F4A140A6958FEF811D93
:10362000811D08950E94251B0C94991B0E948B1BE1
:1036300038F00E94921B20F0952311F00C94821B0D
:103640000C94881B11240C94CD1B0E94AA1B70F3B0
:10365000959FC1F3950F50E0551F629FF001729F37
:10366000BB27F00DB11D639FAA27F00DB11DAA1F46
:10367000649F6627B00DA11D661F829F2227B00D93
:10368000A11D621F739FB00DA11D621F839FA00D1E
:10369000611D221F749F3327A00D611D231F849F6E
:1036A000600D211D822F762F6A2F11249F575040C5
:1036B0009AF0F1F088234AF0EE0FFF1FBB1F661F40
:1036C000771F881F91505040A9F79E3F510580F009
:1036D0000C94821B0C94CD1B5F3FE4F3983ED4F313
:1036E000869577956795B795F795E7959F5FC1F7AD
:1036F000FE2B880F911D9695879597F90895992728
:103700008827089597F99F6780E870E060E0089542
:103710009FEF80EC089500240A94161617061806E9
:103720000906089500240A941216130614060506C5
:103730000895092E0394000C11F4882352F0BB0F56
:1037400040F4BF2B11F460FF04C06F5F7F4F8F4FB9
:103750009F4F089557FD9058440F551F59F05F3FF4
:1037600071F04795880F97FB991F61F09F3F79F0A3
:1037700087950895121613061406551FF2CF469525
:10378000F1DF08C0161617061806991FF1CF8695A7
:103790007105610508940895E894BB27662777278B
:1037A000CB0197F908950E94151CA59F900DB49F19
:1037B000900DA49F800D911D112408952F923F928A
:1037C0004F925F926F927F928F929F92AF92BF9231
:1037D000CF92DF92EF92FF920F931F93CF93DF93DD
:1037E000CDB7DEB7CA1BDB0B0FB6F894DEBF0FBE3A
:1037F000CDBF09942A88398848885F846E847D8487
:103800008C849B84AA84B984C884DF80EE80FD8088
:103810000C811B81AA81B981CE0FD11D0FB6F894FE
:10382000DEBF0FBECDBFED010895A29FB001B39FD3
:10383000C001A39F700D811D1124911DB29F700DB9
:10384000811D1124911D08955058BB27AA270E945D
:103850003C1C0C94991B0E948B1B38F00E94921BFD
:1038600020F039F49F3F19F426F40C94881B0EF4D1
:10387000E095E7FB0C94821BE92F0E94AA1B58F3EA
:10388000BA17620773078407950720F079F4A6F545
:103890000C94CC1B0EF4E0950B2EBA2FA02D0B012F
:1038A000B90190010C01CA01A0011124FF27591B85
:1038B00099F0593F50F4503E68F11A16F040A22F8B
:1038C000232F342F4427585FF3CF469537952795FC
:1038D000A795F0405395C9F77EF41F16BA0B620BFB
:1038E000730B840BBAF09150A1F0FF0FBB1F661F42
:1038F000771F881FC2F70EC0BA0F621F731F841F85
:1039000048F4879577956795B795F7959E3F08F0AA
:10391000B0CF9395880F08F09927EE0F979587956C
:1039200008950E94A51C0C94991B0E94921B58F0AC
:103930000E948B1B40F029F45F3F29F00C94821BFE
:1039400051110C94CD1B0C94881B0E94AA1B68F388
:103950009923B1F3552391F3951B550BBB27AA2748
:1039600062177307840738F09F5F5F4F220F331F82
:10397000441FAA1FA9F335D00E2E3AF0E0E832D04A
:1039800091505040E695001CCAF72BD0FE2F29D04D
:10399000660F771F881FBB1F261737074807AB071F
:1039A000B0E809F0BB0B802DBF01FF2793585F4F94
:1039B0003AF09E3F510578F00C94821B0C94CD1B7D
:1039C0005F3FE4F3983ED4F3869577956795B79576
:1039D000F7959F5FC9F7880F911D9695879597F981
:1039E0000895E1E0660F771F881FBB1F62177307FA
:1039F0008407BA0720F0621B730B840BBA0BEE1F0F
:103A000088F7E09508950E94B21B88F09F5798F0C0
:103A1000B92F9927B751B0F0E1F0660F771F881FD3
:103A2000991F1AF0BA95C9F714C0B13091F00E94ED
:103A3000CC1BB1E008950C94CC1B672F782F8827FE
:103A4000B85F39F0B93FCCF3869577956795B39514
:103A5000D9F73EF490958095709561957F4F8F4F83
:103A60009F4F08950E94EE1A08F48FEF08950E9468
:103A7000EE1A880B990B0895AA1BBB1B51E107C0D6
:103A8000AA1FBB1FA617B70710F0A61BB70B881FEE
:103A9000991F5A95A9F780959095BC01CD0108957D
:103AA00097FB072E16F4009407D077FD09D00E94EB
:103AB0003C1D07FC05D03EF4909581959F4F0895DD
:103AC000709561957F4F0895A1E21A2EAA1BBB1B2A
:103AD000FD010DC0AA1FBB1FEE1FFF1FA217B307DA
:103AE000E407F50720F0A21BB30BE40BF50B661FF0
:103AF000771F881F991F1A9469F7609570958095B4
:103B000090959B01AC01BD01CF010895EE0FFF1F01
:103B10000590F491E02D09940F931F93CF93DF93B9
:103B20008230910510F482E090E0E091B105F091CF
:103B3000B20530E020E0B0E0A0E0309799F4211524
:103B4000310509F44AC0281B390B24303105D8F55A
:103B50008A819B816115710589F1FB0193838283C1
:103B6000FE0111C04081518102811381481759071C
:103B7000E0F04817590799F4109761F012960C93EA
:103B8000129713961C933296CF01DF91CF911F911C
:103B90000F9108950093B1051093B205F4CF21154C
:103BA000310551F04217530738F0A901DB019A01A2
:103BB000BD01DF01F801C1CFEF01F9CF9093B2054C
:103BC0008093B105CDCFFE01E20FF31F8193919356
:103BD0002250310939832883D7CF2091AF05309106
:103BE000B005232B41F42091290130912A01309313
:103BF000B0052093AF0520912701309128012115B0
:103C0000310541F42DB73EB740912B0150912C0165
:103C1000241B350BE091AF05F091B005E217F307D7
:103C2000A0F42E1B3F0B2817390778F0AC014E5F2C
:103C30005F4F2417350748F04E0F5F1F5093B005B4
:103C40004093AF05819391939FCFF0E0E0E09CCF4C
:103C5000CF93DF930097E9F0FC0132971382128231
:103C6000A091B105B091B205ED0130E020E01097D0
:103C7000A1F420813181820F931F2091AF053091F3
:103C8000B0052817390709F061C0F093B005E0933B
:103C9000AF05DF91CF910895EA01CE17DF07E8F570
:103CA0004A815B819E0141155105B1F7E901FB8312
:103CB000EA8349915991C40FD51FEC17FD0761F4B0
:103CC000808191810296840F951FE90199838883F1
:103CD000828193819B838A83F0E0E0E012968D914C
:103CE0009C9113970097B9F52D913C911197CD01B7
:103CF0000296820F931F2091AF053091B0052817CF
:103D0000390739F6309751F51092B2051092B10586
:103D1000B093B005A093AF05BCCFD383C2834081DD
:103D20005181840F951FC817D90761F44E5F5F4F0B
:103D300088819981480F591F518340838A819B81D3
:103D4000938382832115310509F0B0CFF093B2053A
:103D5000E093B1059ECFFD01DC01C0CF138212823A
:103D6000D7CFB0E0A0E0E7EBFEE10C94E01B8C01C4
:103D7000009751F4CB010E948C1D8C01C801CDB776
:103D8000DEB7E0E10C94FC1BFC01E60FF71F9C0181
:103D900022503109E217F30708F49DC0D901CD91F3
:103DA000DC911197C617D70798F0C530D10530F3CD
:103DB000CE0104978617970708F3C61BD70B2297E7
:103DC000C193D1936D937C93CF010E94281ED6CFCF
:103DD0005B01AC1ABD0A4C018C0E9D1EA091B10571
:103DE000B091B205512C412CF12CE12C109731F5FA
:103DF0008091AF059091B0058815990509F05CC0D8
:103E00004616570608F058C0809127019091280166
:103E1000009741F48DB79EB740912B0150912C0132
:103E2000841B950BE817F90708F055C0F093B0050F
:103E3000E093AF05F90171836083A0CF8D919C91D0
:103E4000119712966C90129713967C901397A81561
:103E5000B90559F56C0142E0C40ED11CCA14DB044B
:103E600020F1AC014A195B09DA011296159780F02E
:103E70006282738251834083D9016D937C93E114F4
:103E8000F10471F0D7011396FC93EE93129776CF5D
:103E900022968C0F9D1FF90191838083F301EFCF50
:103EA000F093B205E093B10569CF4816590608F4BE
:103EB0002C017D01D3019ACFCB010E948C1D7C0186
:103EC000009749F0AE01B8010E946E1FC8010E9420
:103ED000281E870153CF10E000E050CFFB01DC012A
:103EE00002C001900D9241505040D8F70895DC0176
:103EF00001C06D9341505040E0F70895FC0181915D
:103F0000861721F08823D9F7992708953197CF0193
:103F10000895FB01DC018D91019080190110D9F306
:103F2000990B0895FB01DC0101900D920020E1F74F
:103F30000895FB01DC014150504030F08D9101901B
:103F4000801919F40020B9F7881B990B0895FC011A
:103F500081E090E00190061609F4CF010020D1F72E
:103F60000197089510E0C0E9D0E004C0FE010E946E
:0E3F7000861D2196C139D107C9F7F894FFCFFD
:103F7E002862A219FC00009E2851B430FF0000CD2B
:103F8E00285FA651FC0000DA010000000C42000080
:103F9E00A041000020C1010000B3058000000040D8
:103FAE0000140054005E00BC00770100000000AF5A
:103FBE0002DD010A02FC026D0219025F020000001E
:103FCE0000D903AC033F058203A5039203830300CC
:103FDE000000003705DD013F053E050D0A006F6E3E
:103FEE00006F6666004D6F746F722061706C69634E
:103FFE0061646F3A2050574D3D006D6F746F722D96
:10400E007374617475733A002C006E616E00696E84
:10401E0066006F7666002D2D2D2D2D2D204C65639F
:10402E00747572612064652054656D70657261747B
:10403E0075726173202D2D2D2D2D2D0054656D70F3
:10404E0020436F63696E613A200020430054656D12
:10405E0070204861626974616369C3B36E3A20006F
:10406E0054656D7020446F726D69746F72696F3A2A
:10407E00200045737461646F204D616E74656E69C6
:10408E006D69656E746F204F6E0045737461646F59
:10409E00204D616E74656E696D69656E746F204F2B
:1040AE00666600756D6272616C65733A0043616D90
:1040BE00626961646F2061206D6F646F2046554E9A
:1040CE0043494F4E414E444F0043616D62696164F6
:1040DE006F2061206D6F646F204D414E54454E49E7
:1040EE004D49454E544F00436F6D616E646F2072A3
:1040FE006563696269646F3A20270061637469764B
:10410E0061720053656D61666F726F2061637469D1
:10411E007661646F202D3E2045737461646F204577
:10412E0030006170616761720053656D61666F7218
:10413E006F206170616761646F202D3E204D616E4E
:10414E0074656E696D69656E746F204F6666006C7E
:10415E0063643A0077733A00766572646500726F35
:10416E006A6F00617A756C006E6172616E6A6100D1
:10417E00616D6172696C6C6F0063656C65737465FB
:10418E000076696F6C65746100726F736100626CAA
:10419E00616E636F006D6167656E746100575332B7
:1041AE0038313220636F6C6F723A2000756D627217
:1041BE00616C3A00556D6272616C65732061637457
:1041CE0075616C697A61646F73202D3E204E6F723B
:1041DE006D616C3A2000207C2041647665727465B6
:1041EE006E6369613A2000207C2052696573676FA7
:1041FE003A20006D6F746F723A0073706565643AA1
:10420E00006D6F746F722D636D642D646573636FD3
:10421E006E6F6369646F3A00436F6D616E646F20F9
:10422E00646573636F6E6F6369646F3A20004573E4
:10423E007461646F2045310045737461646F20456D
:02424E0032003C
:00000001FF
